{
  "_format": "hh-sol-artifact-1",
  "contractName": "MaterialContract",
  "sourceName": "contracts/MaterialContract.sol",
  "abi": [
    {
      "anonymous": false,
      "inputs": [
        {
          "indexed": true,
          "internalType": "uint256",
          "name": "id",
          "type": "uint256"
        },
        {
          "indexed": true,
          "internalType": "address",
          "name": "userAddress",
          "type": "address"
        }
      ],
      "name": "MaterialAdded",
      "type": "event"
    },
    {
      "inputs": [
        {
          "internalType": "string",
          "name": "_fullName",
          "type": "string"
        },
        {
          "internalType": "string",
          "name": "_city",
          "type": "string"
        },
        {
          "internalType": "string",
          "name": "_email",
          "type": "string"
        },
        {
          "internalType": "string",
          "name": "_materialName",
          "type": "string"
        },
        {
          "internalType": "uint256",
          "name": "_weight",
          "type": "uint256"
        },
        {
          "internalType": "uint256",
          "name": "_price",
          "type": "uint256"
        }
      ],
      "name": "addMaterial",
      "outputs": [],
      "stateMutability": "nonpayable",
      "type": "function"
    },
    {
      "inputs": [
        {
          "internalType": "uint256",
          "name": "_id",
          "type": "uint256"
        }
      ],
      "name": "getMaterial",
      "outputs": [
        {
          "internalType": "string",
          "name": "",
          "type": "string"
        },
        {
          "internalType": "string",
          "name": "",
          "type": "string"
        },
        {
          "internalType": "string",
          "name": "",
          "type": "string"
        },
        {
          "internalType": "string",
          "name": "",
          "type": "string"
        },
        {
          "internalType": "uint256",
          "name": "",
          "type": "uint256"
        },
        {
          "internalType": "uint256",
          "name": "",
          "type": "uint256"
        },
        {
          "internalType": "address",
          "name": "",
          "type": "address"
        }
      ],
      "stateMutability": "view",
      "type": "function"
    },
    {
      "inputs": [
        {
          "internalType": "uint256",
          "name": "",
          "type": "uint256"
        }
      ],
      "name": "materials",
      "outputs": [
        {
          "internalType": "string",
          "name": "fullName",
          "type": "string"
        },
        {
          "internalType": "string",
          "name": "city",
          "type": "string"
        },
        {
          "internalType": "string",
          "name": "email",
          "type": "string"
        },
        {
          "internalType": "string",
          "name": "materialName",
          "type": "string"
        },
        {
          "internalType": "uint256",
          "name": "weight",
          "type": "uint256"
        },
        {
          "internalType": "uint256",
          "name": "price",
          "type": "uint256"
        },
        {
          "internalType": "address",
          "name": "userAddress",
          "type": "address"
        }
      ],
      "stateMutability": "view",
      "type": "function"
    },
    {
      "inputs": [],
      "name": "materialsCount",
      "outputs": [
        {
          "internalType": "uint256",
          "name": "",
          "type": "uint256"
        }
      ],
      "stateMutability": "view",
      "type": "function"
    }
  ],
  "bytecode": "0x608060405234801561001057600080fd5b50610aac806100206000396000f3fe608060405234801561001057600080fd5b506004361061004c5760003560e01c8063695639c9146100515780637a8e85261461006d5780638e970a6714610093578063da6d8909146100a8575b600080fd5b61005a60015481565b6040519081526020015b60405180910390f35b61008061007b3660046106cf565b6100bb565b604051610064979695949392919061072e565b6100a66100a1366004610847565b610320565b005b6100806100b63660046106cf565b61043c565b6000602081905290815260409020805481906100d690610906565b80601f016020809104026020016040519081016040528092919081815260200182805461010290610906565b801561014f5780601f106101245761010080835404028352916020019161014f565b820191906000526020600020905b81548152906001019060200180831161013257829003601f168201915b50505050509080600101805461016490610906565b80601f016020809104026020016040519081016040528092919081815260200182805461019090610906565b80156101dd5780601f106101b2576101008083540402835291602001916101dd565b820191906000526020600020905b8154815290600101906020018083116101c057829003601f168201915b5050505050908060020180546101f290610906565b80601f016020809104026020016040519081016040528092919081815260200182805461021e90610906565b801561026b5780601f106102405761010080835404028352916020019161026b565b820191906000526020600020905b81548152906001019060200180831161024e57829003601f168201915b50505050509080600301805461028090610906565b80601f01602080910402602001604051908101604052809291908181526020018280546102ac90610906565b80156102f95780601f106102ce576101008083540402835291602001916102f9565b820191906000526020600020905b8154815290600101906020018083116102dc57829003601f168201915b5050505060048301546005840154600690940154929390929091506001600160a01b031687565b6040805160e0810182528781526020808201889052818301879052606082018690526080820185905260a082018490523360c08301526001546000908152908190529190912081518190610374908261098f565b5060208201516001820190610389908261098f565b506040820151600282019061039e908261098f565b50606082015160038201906103b3908261098f565b506080820151600482015560a0820151600582015560c090910151600690910180546001600160a01b0319166001600160a01b039092169190911790556001546040513391907f53bcf8952588f90ee5dacc672574c7bca6dfab93acb42dc7cf82e6dcf93e9aca90600090a36001805490600061042f83610a4f565b9190505550505050505050565b600081815260208190526040812060048101546005820154600683015483546060958695869586959294859485948493600185019360028601936003870193916001600160a01b031690879061049190610906565b80601f01602080910402602001604051908101604052809291908181526020018280546104bd90610906565b801561050a5780601f106104df5761010080835404028352916020019161050a565b820191906000526020600020905b8154815290600101906020018083116104ed57829003601f168201915b5050505050965085805461051d90610906565b80601f016020809104026020016040519081016040528092919081815260200182805461054990610906565b80156105965780601f1061056b57610100808354040283529160200191610596565b820191906000526020600020905b81548152906001019060200180831161057957829003601f168201915b505050505095508480546105a990610906565b80601f01602080910402602001604051908101604052809291908181526020018280546105d590610906565b80156106225780601f106105f757610100808354040283529160200191610622565b820191906000526020600020905b81548152906001019060200180831161060557829003601f168201915b5050505050945083805461063590610906565b80601f016020809104026020016040519081016040528092919081815260200182805461066190610906565b80156106ae5780601f10610683576101008083540402835291602001916106ae565b820191906000526020600020905b81548152906001019060200180831161069157829003601f168201915b50505050509350975097509750975097509750975050919395979092949650565b6000602082840312156106e157600080fd5b5035919050565b6000815180845260005b8181101561070e576020818501810151868301820152016106f2565b506000602082860101526020601f19601f83011685010191505092915050565b60e08152600061074160e083018a6106e8565b8281036020840152610753818a6106e8565b9050828103604084015261076781896106e8565b9050828103606084015261077b81886106e8565b6080840196909652505060a08101929092526001600160a01b031660c090910152949350505050565b634e487b7160e01b600052604160045260246000fd5b600082601f8301126107cb57600080fd5b813567ffffffffffffffff808211156107e6576107e66107a4565b604051601f8301601f19908116603f0116810190828211818310171561080e5761080e6107a4565b8160405283815286602085880101111561082757600080fd5b836020870160208301376000602085830101528094505050505092915050565b60008060008060008060c0878903121561086057600080fd5b863567ffffffffffffffff8082111561087857600080fd5b6108848a838b016107ba565b9750602089013591508082111561089a57600080fd5b6108a68a838b016107ba565b965060408901359150808211156108bc57600080fd5b6108c88a838b016107ba565b955060608901359150808211156108de57600080fd5b506108eb89828a016107ba565b9350506080870135915060a087013590509295509295509295565b600181811c9082168061091a57607f821691505b60208210810361093a57634e487b7160e01b600052602260045260246000fd5b50919050565b601f82111561098a57600081815260208120601f850160051c810160208610156109675750805b601f850160051c820191505b8181101561098657828155600101610973565b5050505b505050565b815167ffffffffffffffff8111156109a9576109a96107a4565b6109bd816109b78454610906565b84610940565b602080601f8311600181146109f257600084156109da5750858301515b600019600386901b1c1916600185901b178555610986565b600085815260208120601f198616915b82811015610a2157888601518255948401946001909101908401610a02565b5085821015610a3f5787850151600019600388901b60f8161c191681555b5050505050600190811b01905550565b600060018201610a6f57634e487b7160e01b600052601160045260246000fd5b506001019056fea2646970667358221220f85e82e64e3d533c47f49eeaa560353b99403acc96d2203cca7c4936217ecde364736f6c63430008140033",
  "linkReferences": {},
  "deployedLinkReferences": {}
}