{
  "_format": "hh-sol-artifact-1",
  "contractName": "BankRecycle",
  "sourceName": "contracts/BankRecycle.sol",
  "abi": [
    {
      "inputs": [],
      "stateMutability": "nonpayable",
      "type": "constructor"
    },
    {
      "inputs": [
        {
          "internalType": "address",
          "name": "sender",
          "type": "address"
        },
        {
          "internalType": "uint256",
          "name": "balance",
          "type": "uint256"
        },
        {
          "internalType": "uint256",
          "name": "needed",
          "type": "uint256"
        },
        {
          "internalType": "uint256",
          "name": "tokenId",
          "type": "uint256"
        }
      ],
      "name": "ERC1155InsufficientBalance",
      "type": "error"
    },
    {
      "inputs": [
        {
          "internalType": "address",
          "name": "approver",
          "type": "address"
        }
      ],
      "name": "ERC1155InvalidApprover",
      "type": "error"
    },
    {
      "inputs": [
        {
          "internalType": "uint256",
          "name": "idsLength",
          "type": "uint256"
        },
        {
          "internalType": "uint256",
          "name": "valuesLength",
          "type": "uint256"
        }
      ],
      "name": "ERC1155InvalidArrayLength",
      "type": "error"
    },
    {
      "inputs": [
        {
          "internalType": "address",
          "name": "operator",
          "type": "address"
        }
      ],
      "name": "ERC1155InvalidOperator",
      "type": "error"
    },
    {
      "inputs": [
        {
          "internalType": "address",
          "name": "receiver",
          "type": "address"
        }
      ],
      "name": "ERC1155InvalidReceiver",
      "type": "error"
    },
    {
      "inputs": [
        {
          "internalType": "address",
          "name": "sender",
          "type": "address"
        }
      ],
      "name": "ERC1155InvalidSender",
      "type": "error"
    },
    {
      "inputs": [
        {
          "internalType": "address",
          "name": "operator",
          "type": "address"
        },
        {
          "internalType": "address",
          "name": "owner",
          "type": "address"
        }
      ],
      "name": "ERC1155MissingApprovalForAll",
      "type": "error"
    },
    {
      "anonymous": false,
      "inputs": [
        {
          "indexed": true,
          "internalType": "address",
          "name": "account",
          "type": "address"
        },
        {
          "indexed": true,
          "internalType": "address",
          "name": "operator",
          "type": "address"
        },
        {
          "indexed": false,
          "internalType": "bool",
          "name": "approved",
          "type": "bool"
        }
      ],
      "name": "ApprovalForAll",
      "type": "event"
    },
    {
      "anonymous": false,
      "inputs": [
        {
          "indexed": false,
          "internalType": "uint256",
          "name": "id",
          "type": "uint256"
        },
        {
          "indexed": false,
          "internalType": "string",
          "name": "namaMaterial",
          "type": "string"
        },
        {
          "indexed": false,
          "internalType": "uint256",
          "name": "beratMaterial",
          "type": "uint256"
        },
        {
          "indexed": false,
          "internalType": "uint256",
          "name": "hargaMaterial",
          "type": "uint256"
        },
        {
          "indexed": false,
          "internalType": "address",
          "name": "owner",
          "type": "address"
        },
        {
          "indexed": false,
          "internalType": "bool",
          "name": "purchased",
          "type": "bool"
        }
      ],
      "name": "ProductCreated",
      "type": "event"
    },
    {
      "anonymous": false,
      "inputs": [
        {
          "indexed": false,
          "internalType": "uint256",
          "name": "id",
          "type": "uint256"
        },
        {
          "indexed": false,
          "internalType": "address",
          "name": "purchaser",
          "type": "address"
        }
      ],
      "name": "ProductPurchased",
      "type": "event"
    },
    {
      "anonymous": false,
      "inputs": [
        {
          "indexed": false,
          "internalType": "uint256",
          "name": "tokenId",
          "type": "uint256"
        },
        {
          "indexed": false,
          "internalType": "address",
          "name": "from",
          "type": "address"
        },
        {
          "indexed": false,
          "internalType": "address",
          "name": "to",
          "type": "address"
        },
        {
          "indexed": false,
          "internalType": "uint256",
          "name": "amount",
          "type": "uint256"
        }
      ],
      "name": "TokenTransferred",
      "type": "event"
    },
    {
      "anonymous": false,
      "inputs": [
        {
          "indexed": true,
          "internalType": "address",
          "name": "operator",
          "type": "address"
        },
        {
          "indexed": true,
          "internalType": "address",
          "name": "from",
          "type": "address"
        },
        {
          "indexed": true,
          "internalType": "address",
          "name": "to",
          "type": "address"
        },
        {
          "indexed": false,
          "internalType": "uint256[]",
          "name": "ids",
          "type": "uint256[]"
        },
        {
          "indexed": false,
          "internalType": "uint256[]",
          "name": "values",
          "type": "uint256[]"
        }
      ],
      "name": "TransferBatch",
      "type": "event"
    },
    {
      "anonymous": false,
      "inputs": [
        {
          "indexed": true,
          "internalType": "address",
          "name": "operator",
          "type": "address"
        },
        {
          "indexed": true,
          "internalType": "address",
          "name": "from",
          "type": "address"
        },
        {
          "indexed": true,
          "internalType": "address",
          "name": "to",
          "type": "address"
        },
        {
          "indexed": false,
          "internalType": "uint256",
          "name": "id",
          "type": "uint256"
        },
        {
          "indexed": false,
          "internalType": "uint256",
          "name": "value",
          "type": "uint256"
        }
      ],
      "name": "TransferSingle",
      "type": "event"
    },
    {
      "anonymous": false,
      "inputs": [
        {
          "indexed": false,
          "internalType": "string",
          "name": "value",
          "type": "string"
        },
        {
          "indexed": true,
          "internalType": "uint256",
          "name": "id",
          "type": "uint256"
        }
      ],
      "name": "URI",
      "type": "event"
    },
    {
      "inputs": [
        {
          "internalType": "address",
          "name": "account",
          "type": "address"
        },
        {
          "internalType": "uint256",
          "name": "id",
          "type": "uint256"
        }
      ],
      "name": "balanceOf",
      "outputs": [
        {
          "internalType": "uint256",
          "name": "",
          "type": "uint256"
        }
      ],
      "stateMutability": "view",
      "type": "function"
    },
    {
      "inputs": [
        {
          "internalType": "address[]",
          "name": "accounts",
          "type": "address[]"
        },
        {
          "internalType": "uint256[]",
          "name": "ids",
          "type": "uint256[]"
        }
      ],
      "name": "balanceOfBatch",
      "outputs": [
        {
          "internalType": "uint256[]",
          "name": "",
          "type": "uint256[]"
        }
      ],
      "stateMutability": "view",
      "type": "function"
    },
    {
      "inputs": [
        {
          "internalType": "string",
          "name": "_namaMaterial",
          "type": "string"
        },
        {
          "internalType": "uint256",
          "name": "_beratMaterial",
          "type": "uint256"
        },
        {
          "internalType": "uint256",
          "name": "_hargaMaterial",
          "type": "uint256"
        }
      ],
      "name": "createProduct",
      "outputs": [],
      "stateMutability": "nonpayable",
      "type": "function"
    },
    {
      "inputs": [
        {
          "internalType": "uint256",
          "name": "_tokenId",
          "type": "uint256"
        }
      ],
      "name": "getDetails",
      "outputs": [
        {
          "internalType": "string",
          "name": "",
          "type": "string"
        },
        {
          "internalType": "uint256",
          "name": "",
          "type": "uint256"
        },
        {
          "internalType": "uint256",
          "name": "",
          "type": "uint256"
        }
      ],
      "stateMutability": "view",
      "type": "function"
    },
    {
      "inputs": [
        {
          "internalType": "uint256",
          "name": "_tokenId",
          "type": "uint256"
        }
      ],
      "name": "getName",
      "outputs": [
        {
          "internalType": "string",
          "name": "",
          "type": "string"
        }
      ],
      "stateMutability": "view",
      "type": "function"
    },
    {
      "inputs": [
        {
          "internalType": "address",
          "name": "account",
          "type": "address"
        },
        {
          "internalType": "address",
          "name": "operator",
          "type": "address"
        }
      ],
      "name": "isApprovedForAll",
      "outputs": [
        {
          "internalType": "bool",
          "name": "",
          "type": "bool"
        }
      ],
      "stateMutability": "view",
      "type": "function"
    },
    {
      "inputs": [
        {
          "internalType": "uint256",
          "name": "",
          "type": "uint256"
        }
      ],
      "name": "products",
      "outputs": [
        {
          "internalType": "uint256",
          "name": "id",
          "type": "uint256"
        },
        {
          "internalType": "string",
          "name": "namaMaterial",
          "type": "string"
        },
        {
          "internalType": "uint256",
          "name": "beratMaterial",
          "type": "uint256"
        },
        {
          "internalType": "uint256",
          "name": "hargaMaterial",
          "type": "uint256"
        },
        {
          "internalType": "address",
          "name": "owner",
          "type": "address"
        },
        {
          "internalType": "bool",
          "name": "purchased",
          "type": "bool"
        }
      ],
      "stateMutability": "view",
      "type": "function"
    },
    {
      "inputs": [
        {
          "internalType": "uint256",
          "name": "_productId",
          "type": "uint256"
        }
      ],
      "name": "purchaseProduct",
      "outputs": [],
      "stateMutability": "nonpayable",
      "type": "function"
    },
    {
      "inputs": [
        {
          "internalType": "address",
          "name": "from",
          "type": "address"
        },
        {
          "internalType": "address",
          "name": "to",
          "type": "address"
        },
        {
          "internalType": "uint256[]",
          "name": "ids",
          "type": "uint256[]"
        },
        {
          "internalType": "uint256[]",
          "name": "values",
          "type": "uint256[]"
        },
        {
          "internalType": "bytes",
          "name": "data",
          "type": "bytes"
        }
      ],
      "name": "safeBatchTransferFrom",
      "outputs": [],
      "stateMutability": "nonpayable",
      "type": "function"
    },
    {
      "inputs": [
        {
          "internalType": "address",
          "name": "from",
          "type": "address"
        },
        {
          "internalType": "address",
          "name": "to",
          "type": "address"
        },
        {
          "internalType": "uint256",
          "name": "id",
          "type": "uint256"
        },
        {
          "internalType": "uint256",
          "name": "value",
          "type": "uint256"
        },
        {
          "internalType": "bytes",
          "name": "data",
          "type": "bytes"
        }
      ],
      "name": "safeTransferFrom",
      "outputs": [],
      "stateMutability": "nonpayable",
      "type": "function"
    },
    {
      "inputs": [
        {
          "internalType": "address",
          "name": "operator",
          "type": "address"
        },
        {
          "internalType": "bool",
          "name": "approved",
          "type": "bool"
        }
      ],
      "name": "setApprovalForAll",
      "outputs": [],
      "stateMutability": "nonpayable",
      "type": "function"
    },
    {
      "inputs": [
        {
          "internalType": "bytes4",
          "name": "interfaceId",
          "type": "bytes4"
        }
      ],
      "name": "supportsInterface",
      "outputs": [
        {
          "internalType": "bool",
          "name": "",
          "type": "bool"
        }
      ],
      "stateMutability": "view",
      "type": "function"
    },
    {
      "inputs": [],
      "name": "totalProduct",
      "outputs": [
        {
          "internalType": "uint256",
          "name": "",
          "type": "uint256"
        }
      ],
      "stateMutability": "view",
      "type": "function"
    },
    {
      "inputs": [
        {
          "internalType": "address",
          "name": "_to",
          "type": "address"
        },
        {
          "internalType": "uint256",
          "name": "_tokenId",
          "type": "uint256"
        }
      ],
      "name": "transferToken",
      "outputs": [],
      "stateMutability": "nonpayable",
      "type": "function"
    },
    {
      "inputs": [
        {
          "internalType": "uint256",
          "name": "",
          "type": "uint256"
        }
      ],
      "name": "uri",
      "outputs": [
        {
          "internalType": "string",
          "name": "",
          "type": "string"
        }
      ],
      "stateMutability": "view",
      "type": "function"
    }
  ],
  "bytecode": "0x608060405260006004553480156200001657600080fd5b506040518060a00160405280606b815260200162001b94606b91396200003c8162000043565b50620001c6565b6002620000518282620000fa565b5050565b634e487b7160e01b600052604160045260246000fd5b600181811c908216806200008057607f821691505b602082108103620000a157634e487b7160e01b600052602260045260246000fd5b50919050565b601f821115620000f557600081815260208120601f850160051c81016020861015620000d05750805b601f850160051c820191505b81811015620000f157828155600101620000dc565b5050505b505050565b81516001600160401b0381111562000116576200011662000055565b6200012e816200012784546200006b565b84620000a7565b602080601f8311600181146200016657600084156200014d5750858301515b600019600386901b1c1916600185901b178555620000f1565b600085815260208120601f198616915b82811015620001975788860151825594840194600190910190840162000176565b5085821015620001b65787850151600019600388901b60f8161c191681555b5050505050600190811b01905550565b6119be80620001d66000396000f3fe608060405234801561001057600080fd5b50600436106100f45760003560e01c8063566bceef11610097578063a22cb46511610066578063a22cb46514610211578063b93a89f714610224578063e985e9c514610246578063f242432a1461025957600080fd5b8063566bceef146101bd5780636b8ff574146101c65780637acc0b20146101d95780637bf12b1c146101fe57600080fd5b80631072cbea116100d35780631072cbea146101625780632eb2c2d61461017757806338e76a031461018a5780634e1273f41461019d57600080fd5b8062fdd58e146100f957806301ffc9a71461011f5780630e89341c14610142575b600080fd5b61010c61010736600461117a565b61026c565b6040519081526020015b60405180910390f35b61013261012d3660046111bd565b610294565b6040519015158152602001610116565b6101556101503660046111e1565b6102e4565b6040516101169190611240565b61017561017036600461117a565b610378565b005b6101756101853660046113a1565b610415565b6101756101983660046111e1565b610481565b6101b06101ab36600461144b565b610639565b6040516101169190611546565b61010c60045481565b6101556101d43660046111e1565b61070e565b6101ec6101e73660046111e1565b6107b6565b60405161011696959493929190611559565b61017561020c3660046115a2565b610884565b61017561021f366004611604565b610999565b6102376102323660046111e1565b6109a8565b60405161011693929190611640565b610132610254366004611665565b610a6c565b610175610267366004611698565b610a9a565b6000818152602081815260408083206001600160a01b03861684529091529020545b92915050565b60006001600160e01b03198216636cdb3d1360e11b14806102c557506001600160e01b031982166303a24d0760e21b145b8061028e57506301ffc9a760e01b6001600160e01b031983161461028e565b6060600280546102f3906116fd565b80601f016020809104026020016040519081016040528092919081815260200182805461031f906116fd565b801561036c5780601f106103415761010080835404028352916020019161036c565b820191906000526020600020905b81548152906001019060200180831161034f57829003601f168201915b50505050509050919050565b610395338383600160405180602001604052806000815250610a9a565b6000818152600360209081526040918290206004810180546001600160a01b0319166001600160a01b0387169081179091558351858152339381019390935292820192909252600160608201527fdc5e8cc6b36001921ea942b2d0334e09fcc347e33b47a83d9a6c5c2a521d329c906080015b60405180910390a1505050565b336001600160a01b038616811480159061043657506104348682610a6c565b155b1561046c5760405163711bec9160e11b81526001600160a01b038083166004830152871660248201526044015b60405180910390fd5b6104798686868686610af9565b505050505050565b60008181526003602052604090208054158015906104a25750600454815411155b6104e55760405162461bcd60e51b815260206004820152601460248201527350726f6475637420494420746964616b2061646160601b6044820152606401610463565b6004810154600160a01b900460ff16156105385760405162461bcd60e51b815260206004820152601460248201527350726f6475637420737564616820646962656c6960601b6044820152606401610463565b60048101546001600160a01b031633036105a45760405162461bcd60e51b815260206004820152602760248201527f546964616b206461706174206d656d62656c692070726f64756b20416e64612060448201526673656e6469726960c81b6064820152608401610463565b60048101546040805160208101909152600081526105d2916001600160a01b03169033908590600190610a9a565b60048101805460ff60a01b19339081166001600160a81b031990921691909117600160a01b179091556040805184815260208101929092527f9ad4ecfaf27ea0cbeebee0ed92fe15c8a84975f1e3d45ccfc526d7751dcf98ff910160405180910390a15050565b6060815183511461066a5781518351604051635b05999160e01b815260048101929092526024820152604401610463565b6000835167ffffffffffffffff81111561068657610686611253565b6040519080825280602002602001820160405280156106af578160200160208202803683370190505b50905060005b8451811015610706576020808202860101516106d99060208084028701015161026c565b8282815181106106eb576106eb611737565b60209081029190910101526106ff81611763565b90506106b5565b509392505050565b60008181526003602052604090206001810180546060929190610730906116fd565b80601f016020809104026020016040519081016040528092919081815260200182805461075c906116fd565b80156107a95780601f1061077e576101008083540402835291602001916107a9565b820191906000526020600020905b81548152906001019060200180831161078c57829003601f168201915b5050505050915050919050565b600360205260009081526040902080546001820180549192916107d8906116fd565b80601f0160208091040260200160405190810160405280929190818152602001828054610804906116fd565b80156108515780601f1061082657610100808354040283529160200191610851565b820191906000526020600020905b81548152906001019060200180831161083457829003601f168201915b5050505060028301546003840154600490940154929390929091506001600160a01b03811690600160a01b900460ff1686565b6004805490600061089483611763565b91905055506108b733600454600160405180602001604052806000815250610b60565b6040805160c081018252600454808252602080830187815283850187905260608401869052336080850152600060a085018190529283526003909152929020815181559151909190600182019061090e90826117c7565b5060408281015160028301556060830151600383015560808301516004928301805460a0909501511515600160a01b026001600160a81b03199095166001600160a01b0390921691909117939093179092555490517f84a86ace0fd8dc64683a8ea9bbee0091c62410a7cdb1c3d84e2a7bc5c420dc7a91610408918690869086903390600090611559565b6109a4338383610bbd565b5050565b6060600080600060036000868152602001908152602001600020905080600101816002015482600301548280546109de906116fd565b80601f0160208091040260200160405190810160405280929190818152602001828054610a0a906116fd565b8015610a575780601f10610a2c57610100808354040283529160200191610a57565b820191906000526020600020905b815481529060010190602001808311610a3a57829003601f168201915b50505050509250935093509350509193909250565b6001600160a01b03918216600090815260016020908152604080832093909416825291909152205460ff1690565b336001600160a01b0386168114801590610abb5750610ab98682610a6c565b155b15610aec5760405163711bec9160e11b81526001600160a01b03808316600483015287166024820152604401610463565b6104798686868686610c53565b6001600160a01b038416610b2357604051632bfa23e760e11b815260006004820152602401610463565b6001600160a01b038516610b4c57604051626a0d4560e21b815260006004820152602401610463565b610b598585858585610ce1565b5050505050565b6001600160a01b038416610b8a57604051632bfa23e760e11b815260006004820152602401610463565b60408051600180825260208201869052818301908152606082018590526080820190925290610479600087848487610ce1565b6001600160a01b038216610be65760405162ced3e160e81b815260006004820152602401610463565b6001600160a01b03838116600081815260016020908152604080832094871680845294825291829020805460ff191686151590811790915591519182527f17307eab39ab6107e8899845ad3d59bd9653f200f220920489ca2b5937696c31910160405180910390a3505050565b6001600160a01b038416610c7d57604051632bfa23e760e11b815260006004820152602401610463565b6001600160a01b038516610ca657604051626a0d4560e21b815260006004820152602401610463565b60408051600180825260208201869052818301908152606082018590526080820190925290610cd88787848487610ce1565b50505050505050565b610ced85858585610d34565b6001600160a01b03841615610b595782513390600103610d265760208481015190840151610d1f838989858589610f51565b5050610479565b610479818787878787611075565b8051825114610d635781518151604051635b05999160e01b815260048101929092526024820152604401610463565b3360005b8351811015610e72576020818102858101820151908501909101516001600160a01b03881615610e1a576000828152602081815260408083206001600160a01b038c16845290915290205481811015610df3576040516303dee4c560e01b81526001600160a01b038a166004820152602481018290526044810183905260648101849052608401610463565b6000838152602081815260408083206001600160a01b038d16845290915290209082900390555b6001600160a01b03871615610e5f576000828152602081815260408083206001600160a01b038b16845290915281208054839290610e59908490611887565b90915550505b505080610e6b90611763565b9050610d67565b508251600103610ef35760208301516000906020840151909150856001600160a01b0316876001600160a01b0316846001600160a01b03167fc3d58168c5ae7397731d063d5bbf3d657854427343f4c083240f7aacaa2d0f628585604051610ee4929190918252602082015260400190565b60405180910390a45050610b59565b836001600160a01b0316856001600160a01b0316826001600160a01b03167f4a39dc06d4c0dbc64b70af90fd698a233a518aa5d07e595d983b8c0526c8f7fb8686604051610f4292919061189a565b60405180910390a45050505050565b6001600160a01b0384163b156104795760405163f23a6e6160e01b81526001600160a01b0385169063f23a6e6190610f9590899089908890889088906004016118c8565b6020604051808303816000875af1925050508015610fd0575060408051601f3d908101601f19168201909252610fcd9181019061190d565b60015b611039573d808015610ffe576040519150601f19603f3d011682016040523d82523d6000602084013e611003565b606091505b50805160000361103157604051632bfa23e760e11b81526001600160a01b0386166004820152602401610463565b805181602001fd5b6001600160e01b0319811663f23a6e6160e01b14610cd857604051632bfa23e760e11b81526001600160a01b0386166004820152602401610463565b6001600160a01b0384163b156104795760405163bc197c8160e01b81526001600160a01b0385169063bc197c81906110b9908990899088908890889060040161192a565b6020604051808303816000875af19250505080156110f4575060408051601f3d908101601f191682019092526110f19181019061190d565b60015b611122573d808015610ffe576040519150601f19603f3d011682016040523d82523d6000602084013e611003565b6001600160e01b0319811663bc197c8160e01b14610cd857604051632bfa23e760e11b81526001600160a01b0386166004820152602401610463565b80356001600160a01b038116811461117557600080fd5b919050565b6000806040838503121561118d57600080fd5b6111968361115e565b946020939093013593505050565b6001600160e01b0319811681146111ba57600080fd5b50565b6000602082840312156111cf57600080fd5b81356111da816111a4565b9392505050565b6000602082840312156111f357600080fd5b5035919050565b6000815180845260005b8181101561122057602081850181015186830182015201611204565b506000602082860101526020601f19601f83011685010191505092915050565b6020815260006111da60208301846111fa565b634e487b7160e01b600052604160045260246000fd5b604051601f8201601f1916810167ffffffffffffffff8111828210171561129257611292611253565b604052919050565b600067ffffffffffffffff8211156112b4576112b4611253565b5060051b60200190565b600082601f8301126112cf57600080fd5b813560206112e46112df8361129a565b611269565b82815260059290921b8401810191818101908684111561130357600080fd5b8286015b8481101561131e5780358352918301918301611307565b509695505050505050565b600067ffffffffffffffff83111561134357611343611253565b611356601f8401601f1916602001611269565b905082815283838301111561136a57600080fd5b828260208301376000602084830101529392505050565b600082601f83011261139257600080fd5b6111da83833560208501611329565b600080600080600060a086880312156113b957600080fd5b6113c28661115e565b94506113d06020870161115e565b9350604086013567ffffffffffffffff808211156113ed57600080fd5b6113f989838a016112be565b9450606088013591508082111561140f57600080fd5b61141b89838a016112be565b9350608088013591508082111561143157600080fd5b5061143e88828901611381565b9150509295509295909350565b6000806040838503121561145e57600080fd5b823567ffffffffffffffff8082111561147657600080fd5b818501915085601f83011261148a57600080fd5b8135602061149a6112df8361129a565b82815260059290921b840181019181810190898411156114b957600080fd5b948201945b838610156114de576114cf8661115e565b825294820194908201906114be565b965050860135925050808211156114f457600080fd5b50611501858286016112be565b9150509250929050565b600081518084526020808501945080840160005b8381101561153b5781518752958201959082019060010161151f565b509495945050505050565b6020815260006111da602083018461150b565b86815260c06020820152600061157260c08301886111fa565b60408301969096525060608101939093526001600160a01b03919091166080830152151560a09091015292915050565b6000806000606084860312156115b757600080fd5b833567ffffffffffffffff8111156115ce57600080fd5b8401601f810186136115df57600080fd5b6115ee86823560208401611329565b9660208601359650604090950135949350505050565b6000806040838503121561161757600080fd5b6116208361115e565b91506020830135801515811461163557600080fd5b809150509250929050565b60608152600061165360608301866111fa565b60208301949094525060400152919050565b6000806040838503121561167857600080fd5b6116818361115e565b915061168f6020840161115e565b90509250929050565b600080600080600060a086880312156116b057600080fd5b6116b98661115e565b94506116c76020870161115e565b93506040860135925060608601359150608086013567ffffffffffffffff8111156116f157600080fd5b61143e88828901611381565b600181811c9082168061171157607f821691505b60208210810361173157634e487b7160e01b600052602260045260246000fd5b50919050565b634e487b7160e01b600052603260045260246000fd5b634e487b7160e01b600052601160045260246000fd5b6000600182016117755761177561174d565b5060010190565b601f8211156117c257600081815260208120601f850160051c810160208610156117a35750805b601f850160051c820191505b81811015610479578281556001016117af565b505050565b815167ffffffffffffffff8111156117e1576117e1611253565b6117f5816117ef84546116fd565b8461177c565b602080601f83116001811461182a57600084156118125750858301515b600019600386901b1c1916600185901b178555610479565b600085815260208120601f198616915b828110156118595788860151825594840194600190910190840161183a565b50858210156118775787850151600019600388901b60f8161c191681555b5050505050600190811b01905550565b8082018082111561028e5761028e61174d565b6040815260006118ad604083018561150b565b82810360208401526118bf818561150b565b95945050505050565b6001600160a01b03868116825285166020820152604081018490526060810183905260a060808201819052600090611902908301846111fa565b979650505050505050565b60006020828403121561191f57600080fd5b81516111da816111a4565b6001600160a01b0386811682528516602082015260a0604082018190526000906119569083018661150b565b8281036060840152611968818661150b565b9050828103608084015261197c81856111fa565b9897505050505050505056fea26469706673582212206d8ed8e40832dd06b6f26a0e2b977bbb385e69e4f88aee1c191fc541a6ed57e564736f6c6343000814003368747470733a2f2f73696c7665722d6d75736963616c2d79616b2d3932342e6d7970696e6174612e636c6f75642f697066732f516d624576357042474b3462523842553146343848396347356d54387051717755746e57574668437a355a34796e2f7b69647d2e6a736f6e",
  "linkReferences": {},
  "deployedLinkReferences": {}
}